{"abi":[{"type":"constructor","inputs":[{"name":"owner","type":"address","internalType":"address"},{"name":"passportDecoder","type":"address","internalType":"contract IGitcoinPassportDecoder"},{"name":"pool","type":"address","internalType":"contract IPool"},{"name":"token","type":"address","internalType":"contract IERC20"},{"name":"atoken","type":"address","internalType":"contract IERC20"}],"stateMutability":"nonpayable"},{"type":"function","name":"REQUIRED_SCORE","inputs":[],"outputs":[{"name":"","type":"uint256","internalType":"uint256"}],"stateMutability":"view"},{"type":"function","name":"_atoken","inputs":[],"outputs":[{"name":"","type":"address","internalType":"contract IERC20"}],"stateMutability":"view"},{"type":"function","name":"_bonds","inputs":[{"name":"","type":"address","internalType":"address"},{"name":"","type":"uint256","internalType":"uint256"}],"outputs":[{"name":"partner","type":"address","internalType":"address"},{"name":"amount","type":"uint256","internalType":"uint256"},{"name":"createdAt","type":"uint256","internalType":"uint256"},{"name":"lastUpdated","type":"uint256","internalType":"uint256"}],"stateMutability":"view"},{"type":"function","name":"_breakFee","inputs":[],"outputs":[{"name":"","type":"uint256","internalType":"uint256"}],"stateMutability":"view"},{"type":"function","name":"_fee","inputs":[],"outputs":[{"name":"","type":"uint256","internalType":"uint256"}],"stateMutability":"view"},{"type":"function","name":"_owner","inputs":[],"outputs":[{"name":"","type":"address","internalType":"address"}],"stateMutability":"view"},{"type":"function","name":"_passportDecoder","inputs":[],"outputs":[{"name":"","type":"address","internalType":"contract IGitcoinPassportDecoder"}],"stateMutability":"view"},{"type":"function","name":"_paused","inputs":[],"outputs":[{"name":"","type":"bool","internalType":"bool"}],"stateMutability":"view"},{"type":"function","name":"_pool","inputs":[],"outputs":[{"name":"","type":"address","internalType":"contract IPool"}],"stateMutability":"view"},{"type":"function","name":"_token","inputs":[],"outputs":[{"name":"","type":"address","internalType":"contract IERC20"}],"stateMutability":"view"},{"type":"function","name":"_withdrawalFee","inputs":[],"outputs":[{"name":"","type":"uint256","internalType":"uint256"}],"stateMutability":"view"},{"type":"function","name":"approve","inputs":[{"name":"partner","type":"address","internalType":"address"},{"name":"spender","type":"address","internalType":"address"}],"outputs":[],"stateMutability":"nonpayable"},{"type":"function","name":"bond","inputs":[{"name":"partner1","type":"address","internalType":"address"},{"name":"partner2","type":"address","internalType":"address"}],"outputs":[{"name":"","type":"tuple","internalType":"struct Bond","components":[{"name":"partner","type":"address","internalType":"address"},{"name":"amount","type":"uint256","internalType":"uint256"},{"name":"createdAt","type":"uint256","internalType":"uint256"},{"name":"lastUpdated","type":"uint256","internalType":"uint256"}]}],"stateMutability":"view"},{"type":"function","name":"bonds","inputs":[{"name":"user","type":"address","internalType":"address"}],"outputs":[{"name":"","type":"tuple[]","internalType":"struct Bond[]","components":[{"name":"partner","type":"address","internalType":"address"},{"name":"amount","type":"uint256","internalType":"uint256"},{"name":"createdAt","type":"uint256","internalType":"uint256"},{"name":"lastUpdated","type":"uint256","internalType":"uint256"}]}],"stateMutability":"view"},{"type":"function","name":"breakBond","inputs":[{"name":"partner","type":"address","internalType":"address"}],"outputs":[],"stateMutability":"nonpayable"},{"type":"function","name":"breakFee","inputs":[],"outputs":[{"name":"","type":"uint256","internalType":"uint256"}],"stateMutability":"view"},{"type":"function","name":"communityPoolBalance","inputs":[],"outputs":[{"name":"","type":"uint256","internalType":"uint256"}],"stateMutability":"view"},{"type":"function","name":"deposit","inputs":[{"name":"amount","type":"uint256","internalType":"uint256"},{"name":"partner","type":"address","internalType":"address"}],"outputs":[],"stateMutability":"nonpayable"},{"type":"function","name":"depositCommunityPool","inputs":[{"name":"amount","type":"uint256","internalType":"uint256"}],"outputs":[],"stateMutability":"nonpayable"},{"type":"function","name":"fee","inputs":[],"outputs":[{"name":"","type":"uint256","internalType":"uint256"}],"stateMutability":"view"},{"type":"function","name":"isPaused","inputs":[],"outputs":[{"name":"","type":"bool","internalType":"bool"}],"stateMutability":"view"},{"type":"function","name":"pause","inputs":[],"outputs":[],"stateMutability":"nonpayable"},{"type":"function","name":"personMultiplier","inputs":[{"name":"user","type":"address","internalType":"address"}],"outputs":[{"name":"","type":"uint256","internalType":"uint256"}],"stateMutability":"view"},{"type":"function","name":"score","inputs":[{"name":"user","type":"address","internalType":"address"}],"outputs":[{"name":"","type":"uint256","internalType":"uint256"}],"stateMutability":"view"},{"type":"function","name":"setBreakFee","inputs":[{"name":"newFee","type":"uint256","internalType":"uint256"}],"outputs":[],"stateMutability":"nonpayable"},{"type":"function","name":"setFee","inputs":[{"name":"newFee","type":"uint256","internalType":"uint256"}],"outputs":[],"stateMutability":"nonpayable"},{"type":"function","name":"setWithdrawalFee","inputs":[{"name":"newFee","type":"uint256","internalType":"uint256"}],"outputs":[],"stateMutability":"nonpayable"},{"type":"function","name":"unpause","inputs":[],"outputs":[],"stateMutability":"nonpayable"},{"type":"function","name":"withdraw","inputs":[{"name":"partner","type":"address","internalType":"address"}],"outputs":[],"stateMutability":"nonpayable"},{"type":"function","name":"withdrawCommunityPool","inputs":[{"name":"amount","type":"uint256","internalType":"uint256"}],"outputs":[],"stateMutability":"nonpayable"},{"type":"function","name":"withdrawRewardsDistribution","inputs":[{"name":"user","type":"address","internalType":"address"}],"outputs":[],"stateMutability":"nonpayable"},{"type":"function","name":"withdrawalFee","inputs":[],"outputs":[{"name":"","type":"uint256","internalType":"uint256"}],"stateMutability":"view"},{"type":"event","name":"BondBroken","inputs":[{"name":"breaker","type":"address","indexed":true,"internalType":"address"},{"name":"partner","type":"address","indexed":true,"internalType":"address"},{"name":"amount","type":"uint256","indexed":false,"internalType":"uint256"}],"anonymous":false},{"type":"event","name":"BondCreated","inputs":[{"name":"partner1","type":"address","indexed":true,"internalType":"address"},{"name":"partner2","type":"address","indexed":true,"internalType":"address"},{"name":"amount","type":"uint256","indexed":false,"internalType":"uint256"}],"anonymous":false},{"type":"event","name":"CommunityPoolDeposited","inputs":[{"name":"amount","type":"uint256","indexed":false,"internalType":"uint256"}],"anonymous":false},{"type":"event","name":"CommunityPoolWithdrawn","inputs":[{"name":"amount","type":"uint256","indexed":false,"internalType":"uint256"}],"anonymous":false},{"type":"event","name":"FeeUpdated","inputs":[{"name":"newFee","type":"uint256","indexed":false,"internalType":"uint256"}],"anonymous":false},{"type":"event","name":"Paused","inputs":[{"name":"paused","type":"bool","indexed":false,"internalType":"bool"}],"anonymous":false},{"type":"event","name":"RewardsWithdrawn","inputs":[{"name":"user","type":"address","indexed":true,"internalType":"address"},{"name":"amount","type":"uint256","indexed":false,"internalType":"uint256"}],"anonymous":false}],"bytecode":{"object":"0x60806040523480156200001157600080fd5b5060405162001865380380620018658339810160408190526200003491620000ba565b600080546001600160a01b03199081166001600160a01b03978816179091556004805482169587169590951785556005805482169487169490941790935560068054841692861692909217909155600160025560039290925560078054909116919092161790556200013a565b6001600160a01b0381168114620000b757600080fd5b50565b600080600080600060a08688031215620000d357600080fd5b8551620000e081620000a1565b6020870151909550620000f381620000a1565b60408701519094506200010681620000a1565b60608701519093506200011981620000a1565b60808701519092506200012c81620000a1565b809150509295509295909350565b61171b806200014a6000396000f3fe608060405234801561001057600080fd5b50600436106101f05760003560e01c80638456cb591161010f578063da2e4f6d116100a2578063ecd0c0c311610071578063ecd0c0c3146103fb578063ee8b6ff91461035f578063fe10d7741461040e578063ff257b181461042e57600080fd5b8063da2e4f6d146103ce578063ddca3f43146103e1578063dfe9ae1a146103e9578063e647a581146103f257600080fd5b8063b187bd26116100de578063b187bd2614610398578063b2bdfa7b146103aa578063bc8d9580146103bd578063c5b37c22146103c557600080fd5b80638456cb591461036d5780638bc7e8c41461037557806391a7e86a1461037d578063ac1e50251461038557600080fd5b80635f31d0451161018757806374cf58d21161015657806374cf58d214610339578063776f38431461025e5780637e5465ba1461034c578063822528311461035f57600080fd5b80635f31d045146102e0578063636fc28b1461030057806369fe0e2d146103135780636e553f651461032657600080fd5b80633f4ba83a116101c35780633f4ba83a146102805780634d72607b1461028857806351cff8d9146102c557806354c17527146102d857600080fd5b80630711c036146101f557806316c61ccc14610225578063223b0bb614610249578063384b09471461025e575b600080fd5b600754610208906001600160a01b031681565b6040516001600160a01b0390911681526020015b60405180910390f35b60005461023990600160a01b900460ff1681565b604051901515815260200161021c565b61025c610257366004611417565b610441565b005b61027261026c366004611417565b50600090565b60405190815260200161021c565b61025c610477565b61029b610296366004611439565b6104f8565b604080516001600160a01b039095168552602085019390935291830152606082015260800161021c565b61025c6102d3366004611417565b610548565b610272601481565b6102f36102ee366004611463565b6108c3565b60405161021c9190611496565b600554610208906001600160a01b031681565b61025c6103213660046114ca565b610a25565b61025c6103343660046114e3565b610a8b565b61025c6103473660046114ca565b610fa1565b61025c61035a366004611463565b611000565b61025c6102573660046114ca565b61025c61102e565b600254610272565b600354610272565b61025c6103933660046114ca565b6110a7565b600054600160a01b900460ff16610239565b600054610208906001600160a01b031681565b610272611106565b61027260015481565b61025c6103dc366004611417565b611178565b600154610272565b61027260035481565b61027260025481565b600654610208906001600160a01b031681565b61042161041c366004611417565b61135b565b60405161021c9190611506565b600454610208906001600160a01b031681565b6000546001600160a01b031633146104745760405162461bcd60e51b815260040161046b9061157b565b60405180910390fd5b50565b6000546001600160a01b031633146104a15760405162461bcd60e51b815260040161046b9061157b565b6000805460ff60a01b1916908190556040517f0e2fb031ee032dc02d8011dc50b816eb450cf856abd8261680dac74f72165bd2916104ee91600160a01b90910460ff161515815260200190565b60405180910390a1565b6008602052816000526040600020818154811061051457600080fd5b600091825260209091206004909102018054600182015460028301546003909301546001600160a01b039092169450925084565b600054600160a01b900460ff16156105725760405162461bcd60e51b815260040161046b906115bc565b600061057e33836108c3565b905060008160200151116105cb5760405162461bcd60e51b81526020600482015260146024820152734e6f2066756e647320746f20776974686472617760601b604482015260640161046b565b60006105d783336108c3565b905060008160200151116106245760405162461bcd60e51b81526020600482015260146024820152734e6f2066756e647320746f20776974686472617760601b604482015260640161046b565b6005546006546020840151604051631a4ca37b60e21b81526001600160a01b039283166004820152602481019190915230604482015260009291909116906369328dec906064016020604051808303816000875af115801561068a573d6000803e3d6000fd5b505050506040513d601f19601f820116820180604052508101906106ae91906115e8565b9050826020015181146106d35760405162461bcd60e51b815260040161046b90611601565b6064600254826106e3919061164e565b6106ed9190611665565b6106f79082611687565b60065460405163a9059cbb60e01b8152336004820152602481018390529192506001600160a01b03169063a9059cbb906044016020604051808303816000875af1158015610749573d6000803e3d6000fd5b505050506040513d601f19601f8201168201806040525081019061076d919061169a565b506005546006546020840151604051631a4ca37b60e21b81526001600160a01b039283166004820152602481019190915230604482015260009291909116906369328dec906064016020604051808303816000875af11580156107d4573d6000803e3d6000fd5b505050506040513d601f19601f820116820180604052508101906107f891906115e8565b90508260200151811461081d5760405162461bcd60e51b815260040161046b90611601565b60646002548261082d919061164e565b6108379190611665565b6108419082611687565b60065460405163a9059cbb60e01b81526001600160a01b0388811660048301526024820184905292935091169063a9059cbb906044015b6020604051808303816000875af1158015610897573d6000803e3d6000fd5b505050506040513d601f19601f820116820180604052508101906108bb919061169a565b505050505050565b6108f7604051806080016040528060006001600160a01b031681526020016000815260200160008152602001600081525090565b60005b6001600160a01b0384166000908152600860205260409020548110156109ed576001600160a01b03848116600090815260086020526040902080549185169183908110610949576109496116bc565b60009182526020909120600490910201546001600160a01b0316036109e5576001600160a01b0384166000908152600860205260409020805482908110610992576109926116bc565b600091825260209182902060408051608081018252600490930290910180546001600160a01b0316835260018101549383019390935260028301549082015260039091015460608201529150610a1f9050565b6001016108fa565b50604051806080016040528060006001600160a01b031681526020016000815260200160008152602001600081525090505b92915050565b6000546001600160a01b03163314610a4f5760405162461bcd60e51b815260040161046b9061157b565b60018190556040518181527f8c4d35e54a3f2ef1134138fd8ea3daee6a3c89e10d2665996babdf70261e2c76906020015b60405180910390a150565b600054600160a01b900460ff1615610ab55760405162461bcd60e51b815260040161046b906115bc565b60008211610b055760405162461bcd60e51b815260206004820152601d60248201527f416d6f756e74206d7573742062652067726561746572207468616e2030000000604482015260640161046b565b6006546040516370a0823160e01b815233600482015283916001600160a01b0316906370a0823190602401602060405180830381865afa158015610b4d573d6000803e3d6000fd5b505050506040513d601f19601f82011682018060405250810190610b7191906115e8565b1015610bb65760405162461bcd60e51b8152602060048201526014602482015273496e73756666696369656e742062616c616e636560601b604482015260640161046b565b600654604051636eb1769f60e11b815233600482015230602482015283916001600160a01b03169063dd62ed3e90604401602060405180830381865afa158015610c04573d6000803e3d6000fd5b505050506040513d601f19601f82011682018060405250810190610c2891906115e8565b1015610c6f5760405162461bcd60e51b8152602060048201526016602482015275496e73756666696369656e7420616c6c6f77616e636560501b604482015260640161046b565b6001600160a01b0381163303610cc75760405162461bcd60e51b815260206004820152601960248201527f43616e6e6f7420626f6e64207769746820796f757273656c6600000000000000604482015260640161046b565b6006546040516323b872dd60e01b8152336004820152306024820152604481018490526001600160a01b03909116906323b872dd906064016020604051808303816000875af1158015610d1e573d6000803e3d6000fd5b505050506040513d601f19601f82011682018060405250810190610d42919061169a565b506006546040516370a0823160e01b815230600482015283916001600160a01b0316906370a0823190602401602060405180830381865afa158015610d8b573d6000803e3d6000fd5b505050506040513d601f19601f82011682018060405250810190610daf91906115e8565b1015610df45760405162461bcd60e51b8152602060048201526014602482015273496e73756666696369656e742062616c616e636560601b604482015260640161046b565b60065460055460405163095ea7b360e01b81526001600160a01b0391821660048201526024810185905291169063095ea7b3906044016020604051808303816000875af1158015610e49573d6000803e3d6000fd5b505050506040513d601f19601f82011682018060405250810190610e6d919061169a565b5060055460065460405163617ba03760e01b81526001600160a01b039182166004820152602481018590523060448201526000606482015291169063617ba03790608401600060405180830381600087803b158015610ecb57600080fd5b505af1158015610edf573d6000803e3d6000fd5b505050506000610eef33836108c3565b80519091506001600160a01b0316610f81575033600090815260086020908152604080832081516080810183526001600160a01b039586168152808401968752429281018381526060820193845282546001808201855593875294909520905160049094020180546001600160a01b031916939095169290921784559351908301555160028201559051600390910155565b8281602001818151610f9391906116d2565b905250426060820152505050565b6000546001600160a01b03163314610fcb5760405162461bcd60e51b815260040161046b9061157b565b60038190556040518181527f8c4d35e54a3f2ef1134138fd8ea3daee6a3c89e10d2665996babdf70261e2c7690602001610a80565b600054600160a01b900460ff161561102a5760405162461bcd60e51b815260040161046b906115bc565b5050565b6000546001600160a01b031633146110585760405162461bcd60e51b815260040161046b9061157b565b6000805460ff60a01b1916600160a01b908117918290556040517f0e2fb031ee032dc02d8011dc50b816eb450cf856abd8261680dac74f72165bd2926104ee92900460ff161515815260200190565b6000546001600160a01b031633146110d15760405162461bcd60e51b815260040161046b9061157b565b60028190556040518181527f8c4d35e54a3f2ef1134138fd8ea3daee6a3c89e10d2665996babdf70261e2c7690602001610a80565b6006546040516370a0823160e01b81523060048201526000916001600160a01b0316906370a0823190602401602060405180830381865afa15801561114f573d6000803e3d6000fd5b505050506040513d601f19601f8201168201806040525081019061117391906115e8565b905090565b600054600160a01b900460ff16156111a25760405162461bcd60e51b815260040161046b906115bc565b60006111ae33836108c3565b905060006111bc83336108c3565b90506000816020015183602001516111d491906116d2565b116112145760405162461bcd60e51b815260206004820152601060248201526f4e6f20626f6e6420746f20627265616b60801b604482015260640161046b565b600554600654602080840151908501516000936001600160a01b03908116936369328dec9391169161124691906116d2565b6040516001600160e01b031960e085901b1681526001600160a01b03909216600483015260248201523060448201526064016020604051808303816000875af1158015611297573d6000803e3d6000fd5b505050506040513d601f19601f820116820180604052508101906112bb91906115e8565b9050816020015183602001516112d191906116d2565b81146112ef5760405162461bcd60e51b815260040161046b90611601565b6000606460035483611301919061164e565b61130b9190611665565b6006549091506001600160a01b031663a9059cbb3361132a8486611687565b6040516001600160e01b031960e085901b1681526001600160a01b0390921660048301526024820152604401610878565b6001600160a01b0381166000908152600860209081526040808320805482518185028101850190935280835260609492939192909184015b828210156113f0576000848152602090819020604080516080810182526004860290920180546001600160a01b03168352600180820154848601526002820154928401929092526003015460608301529083529092019101611393565b505050509050919050565b80356001600160a01b038116811461141257600080fd5b919050565b60006020828403121561142957600080fd5b611432826113fb565b9392505050565b6000806040838503121561144c57600080fd5b611455836113fb565b946020939093013593505050565b6000806040838503121561147657600080fd5b61147f836113fb565b915061148d602084016113fb565b90509250929050565b81516001600160a01b0316815260208083015190820152604080830151908201526060808301519082015260808101610a1f565b6000602082840312156114dc57600080fd5b5035919050565b600080604083850312156114f657600080fd5b8235915061148d602084016113fb565b6020808252825182820181905260009190848201906040850190845b8181101561156f5761155c83855180516001600160a01b031682526020808201519083015260408082015190830152606090810151910152565b9284019260809290920191600101611522565b50909695505050505050565b60208082526021908201527f4f6e6c79206f776e65722063616e2063616c6c20746869732066756e6374696f6040820152603760f91b606082015260800190565b60208082526012908201527110dbdb9d1c9858dd081a5cc81c185d5cd95960721b604082015260600190565b6000602082840312156115fa57600080fd5b5051919050565b6020808252601a908201527f5769746864726177616c20616d6f756e74206d69736d61746368000000000000604082015260600190565b634e487b7160e01b600052601160045260246000fd5b8082028115828204841417610a1f57610a1f611638565b60008261168257634e487b7160e01b600052601260045260246000fd5b500490565b81810381811115610a1f57610a1f611638565b6000602082840312156116ac57600080fd5b8151801515811461143257600080fd5b634e487b7160e01b600052603260045260246000fd5b80820180821115610a1f57610a1f61163856fea2646970667358221220c71cc94bf17bfba01cfaef288f601213599ab860eb4809277651983c35bd52f164736f6c63430008160033","linkReferences":{}},"methodIdentifiers":{"REQUIRED_SCORE()":"54c17527","_atoken()":"0711c036","_bonds(address,uint256)":"4d72607b","_breakFee()":"dfe9ae1a","_fee()":"c5b37c22","_owner()":"b2bdfa7b","_passportDecoder()":"ff257b18","_paused()":"16c61ccc","_pool()":"636fc28b","_token()":"ecd0c0c3","_withdrawalFee()":"e647a581","approve(address,address)":"7e5465ba","bond(address,address)":"5f31d045","bonds(address)":"fe10d774","breakBond(address)":"da2e4f6d","breakFee()":"91a7e86a","communityPoolBalance()":"bc8d9580","deposit(uint256,address)":"6e553f65","depositCommunityPool(uint256)":"82252831","fee()":"ddca3f43","isPaused()":"b187bd26","pause()":"8456cb59","personMultiplier(address)":"384b0947","score(address)":"776f3843","setBreakFee(uint256)":"74cf58d2","setFee(uint256)":"69fe0e2d","setWithdrawalFee(uint256)":"ac1e5025","unpause()":"3f4ba83a","withdraw(address)":"51cff8d9","withdrawCommunityPool(uint256)":"ee8b6ff9","withdrawRewardsDistribution(address)":"223b0bb6","withdrawalFee()":"8bc7e8c4"},"id":26}